:020000040800F2
:1000000000520020996C00080BD900086D6C0008A4
:100010006D6C00086D6C00086D6C0008000000003D
:100020000000000000000000000000009D6D0008BE
:100030006D6C000800000000356D0008F97E0008B6
:10004000196F0008196F0008196F0008196F000870
:10005000196F0008196F0008196F0008196F000860
:10006000196F0008196F0008196F0008196F000850
:10007000196F0008196F0008196F0008196F000840
:10008000196F0008196F0008196F0008196F000830
:10009000196F0008196F0008196F0008196F000820
:1000A000196F0008196F0008196F0008196F000810
:1000B000196F0008196F0008196F0008196F000800
:1000C000196F0008196F0008196F0008196F0008F0
:1000D000196F0008196F0008196F0008196F0008E0
:1000E000196F0008196F0008196F0008196F0008D0
:1000F000196F0008196F0008196F0008196F0008C0
:10010000196F0008196F0008196F0008196F0008AF
:10011000196F0008196F0008196F0008196F00089F
:10012000196F0008196F0008196F0008196F00088F
:10013000196F0008196F0008196F0008196F00087F
:10014000196F0008196F0008196F0008196F00086F
:10015000196F0008196F0008196F0008196F00085F
:10016000196F0008196F0008196F0008196F00084F
:10017000196F0008196F0008196F0008196F00083F
:10018000196F0008196F0008196F0008196F00082F
:10019000196F0008196F0008196F0008196F00081F
:0C01A000196F0008196F0008196F0008A3
:0401AC00FFFFFFFF53
:1001B00081F0004102E000BF83F0004330B54FEA18
:1001C00041044FEA430594EA050F08BF90EA020F85
:1001D0001FBF54EA000C55EA020C7FEA645C7FEA18
:1001E000655C00F0E2804FEA5454D4EB5555B8BF3B
:1001F0006D420CDD2C4480EA020281EA030382EAAC
:10020000000083EA010180EA020281EA0303362D3D
:1002100088BF30BD11F0004F4FEA01314FF4801C10
:100220004CEA113102D0404261EB410113F0004F22
:100230004FEA03334CEA133302D0524263EB4303D9
:1002400094EA050F00F0A780A4F10104D5F1200E77
:100250000DDB02FA0EFC22FA05F2801841F10001D2
:1002600003FA0EF2801843FA05F359410EE0A5F1A6
:1002700020050EF1200E012A03FA0EFC28BF4CF0D7
:10028000020C43FA05F3C01851EBE37101F000458D
:1002900007D54FF0000EDCF1000C7EEB00006EEB9A
:1002A0000101B1F5801F1BD3B1F5001F0CD3490824
:1002B0005FEA30004FEA3C0C04F101044FEA44527B
:1002C00012F5800F80F09A80BCF1004F08BF5FEA02
:1002D000500C50F1000041EB045141EA050130BDE2
:1002E0005FEA4C0C404141EB0101013C28BFB1F5F4
:1002F000801FE9D291F0000F04BF01460020B1FA3F
:1003000081F308BF2033A3F10B03B3F120020CDA11
:100310000C3208DD02F1140CC2F10C0201FA0CF0EF
:1003200021FA02F10CE002F11402D8BFC2F1200C54
:1003300001FA02F120FA0CFCDCBF41EA0C0190400A
:10034000E41AA2BF01EB0451294330BD6FEA040453
:100350001F3C1CDA0C340EDC04F11404C4F120023E
:1003600020FA04F001FA02F340EA030021FA04F350
:1003700045EA030130BDC4F10C04C4F1200220FAA7
:1003800002F001FA04F340EA0300294630BD21FAE5
:1003900004F0294630BD94F0000F83F4801306BFAB
:1003A00081F480110134013D4EE77FEA645C18BF9F
:1003B0007FEA655C29D094EA050F08BF90EA020F36
:1003C00005D054EA000C04BF1946104630BD91EA2E
:1003D000030F1EBF0021002030BD5FEA545C05D131
:1003E0004000494128BF41F0004130BD14F5800470
:1003F0003CBF01F5801130BD01F0004545F0FE41E4
:1004000041F470014FF0000030BD7FEA645C1ABF18
:10041000194610467FEA655C1CBF0B46024650EA4F
:10042000013406BF52EA033591EA030F41F400217B
:1004300030BD00BF90F0000F04BF0021704730B501
:100440004FF4806404F132044FF000054FF00001D6
:1004500050E700BF90F0000F04BF0021704730B597
:100460004FF4806404F1320410F0004548BF40426C
:100470004FF000013EE700BF42004FEAE2014FEAC1
:1004800031014FEA02701FBF12F07F4393F07F4F9C
:1004900081F06051704732F07F4208BF704793F09F
:1004A0007F4F04BF41F40021704730B54FF46074B2
:1004B00001F0004521F000411CE700BF50EA0102B5
:1004C00008BF704730B54FF000050AE050EA01025E
:1004D00008BF704730B511F0004502D5404261EBCE
:1004E00041014FF4806404F132045FEA915C3FF40F
:1004F000D8AE4FF003025FEADC0C18BF03325FEAAC
:10050000DC0C18BF033202EBDC02C2F1200300FA5C
:1005100003FC20FA02F001FA03FE40EA0E0021FA81
:1005200002F11444BDE600BF70B54FF0FF0C4CF46F
:10053000E06C1CEA11541DBF1CEA135594EA0C0F21
:1005400095EA0C0F00F0DEF82C4481EA030621EA5C
:100550004C5123EA4C5350EA013518BF52EA033597
:1005600041F4801143F4801338D0A0FB02CE4FF049
:100570000005E1FB02E506F00042E0FB03E54FF079
:100580000006E1FB03569CF0000F18BF4EF0010E71
:10059000A4F1FF04B6F5007F64F5407404D25FEA6D
:1005A0004E0E6D4146EB060642EAC62141EA555120
:1005B0004FEAC52040EA5E504FEACE2EB4F1FD0C62
:1005C00088BFBCF5E06F1ED8BEF1004F08BF5FEAE0
:1005D000500E50F1000041EB045170BD06F0004692
:1005E00046EA010140EA020081EA0301B4EB5C043F
:1005F000C2BFD4EB0C0541EA045170BD41F4801137
:100600004FF0000E013C00F3AB8014F1360FDEBF5B
:10061000002001F0004170BDC4F10004203C35DA37
:100620000C341BDC04F11404C4F1200500FA05F3BA
:1006300020FA04F001FA05F240EA020001F000425B
:1006400021F0004110EBD37021FA04F642EB0601D1
:100650005EEA430E08BF20EAD37070BDC4F10C04FB
:10066000C4F1200500FA04F320FA05F001FA04F2BF
:1006700040EA020001F0004110EBD37041F10001AB
:100680005EEA430E08BF20EAD37070BDC4F12005B6
:1006900000FA05F24EEA020E20FA04F301FA05F21E
:1006A00043EA020321FA04F001F0004121FA04F2C6
:1006B00020EA020000EBD3705EEA430E08BF20EA96
:1006C000D37070BD94F0000F0FD101F000464000D0
:1006D00041EB010111F4801F08BF013CF7D041EA52
:1006E000060195F0000F18BF704703F00046520056
:1006F00043EB030313F4801F08BF013DF7D043EA27
:100700000603704794EA0C0F0CEA135518BF95EADC
:100710000C0F0CD050EA410618BF52EA4306D1D163
:1007200081EA030101F000414FF0000070BD50EA82
:10073000410606BF1046194652EA430619D094EA0C
:100740000C0F02D150EA013613D195EA0C0F05D1F6
:1007500052EA03361CBF104619460AD181EA03014A
:1007600001F0004141F0FE4141F470014FF0000002
:1007700070BD41F0FE4141F4780170BD70B54FF09D
:10078000FF0C4CF4E06C1CEA11541DBF1CEA13551D
:1007900094EA0C0F95EA0C0F00F0A7F8A4EB0504FF
:1007A00081EA030E52EA03354FEA013100F08880F6
:1007B0004FEA03334FF0805545EA131343EA1263BF
:1007C0004FEA022245EA111545EA10654FEA002674
:1007D0000EF000419D4208BF964244F1FD0404F52D
:1007E000407402D25B084FEA3202B61A65EB030589
:1007F0005B084FEA32024FF480104FF4002CB6EB46
:10080000020E75EB030E22BFB61A754640EA0C00C5
:100810005B084FEA3202B6EB020E75EB030E22BF05
:10082000B61A754640EA5C005B084FEA3202B6EB46
:10083000020E75EB030E22BFB61A754640EA9C0005
:100840005B084FEA3202B6EB020E75EB030E22BFD5
:10085000B61A754640EADC0055EA060E18D04FEA93
:10086000051545EA16754FEA06164FEAC30343EA33
:1008700052734FEAC2025FEA1C1CC0D111F4801F00
:100880000BD141EA00014FF000004FF0004CB6E7F9
:1008900011F4801F04BF01430020B4F1FD0C88BF98
:1008A000BCF5E06F3FF6AFAEB5EB030C04BFB6EBA3
:1008B000020C5FEA500C50F1000041EB045170BD96
:1008C0000EF0004E4EEA113114EB5C04C2BFD4EBC3
:1008D0000C0541EA045170BD41F480114FF0000E47
:1008E000013C90E645EA060E8DE60CEA135594EAC3
:1008F0000C0F08BF95EA0C0F3FF43BAF94EA0C0FC6
:100900000AD150EA01347FF434AF95EA0C0F7FF43A
:1009100025AF104619462CE795EA0C0F06D152EA8E
:1009200003353FF4FDAE1046194622E750EA410672
:1009300018BF52EA43067FF4C5AE50EA41047FF483
:100940000DAF52EA43057FF4EBAE12E74FEA4102E6
:10095000B2F1E04324BFB3F5001CDCF1FE5C0DD91D
:1009600001F0004C4FEAC0024CEA5070B2F1004F67
:1009700040EB830008BF20F00100704711F0804F6A
:1009800021D113F13872BCBF01F00040704741F42F
:1009900080114FEA5252C2F11802C2F1200C10FA33
:1009A0000CF320FA02F018BF40F001004FEAC12317
:1009B0004FEAD32303FA0CFC40EA0C0023FA02F3BB
:1009C0004FEA4303CCE77FEA625307D150EA013391
:1009D0001EBF4FF0FE4040F44000704701F0004061
:1009E00040F0FE4040F40000704700BF80F000403F
:1009F00002E000BF81F0004142001FBF5FEA4103F7
:100A000092EA030F7FEA226C7FEA236C6AD04FEAF6
:100A10001262D2EB1363C1BFD2184140484041403B
:100A2000B8BF5B42192B88BF704710F0004F40F4ED
:100A3000000020F07F4018BF404211F0004F41F409
:100A4000000121F07F4118BF494292EA030F3FD0D5
:100A5000A2F1010241FA03FC10EB0C00C3F12003E8
:100A600001FA03F100F0004302D5494260EB400077
:100A7000B0F5000F13D3B0F1807F06D340084FEAE2
:100A8000310102F10102FE2A51D2B1F1004F40EBD7
:100A9000C25008BF20F0010040EA0300704749003F
:100AA00040EB0000013A28BFB0F5000FEDD2B0FADC
:100AB00080FCACF1080CB2EB0C0200FA0CF0AABFFF
:100AC00000EBC25052421843BCBFD040184370479D
:100AD00092F0000F81F4000106BF80F400000132A3
:100AE000013BB5E74FEA41037FEA226C18BF7FEA7A
:100AF000236C21D092EA030F04D092F0000F08BFBC
:100B00000846704790EA010F1CBF0020704712F0A2
:100B10007F4F04D1400028BF40F00040704712F1E1
:100B200000723CBF00F50000704700F0004343F046
:100B3000FE4040F4000070477FEA226216BF08467C
:100B40007FEA23630146420206BF5FEA412390EA3F
:100B5000010F40F4800070474FF0000304E000BF35
:100B600010F0004348BF40425FEA000C08BF7047E6
:100B700043F0964301464FF000001CE050EA0102AA
:100B800008BF70474FF000030AE000BF50EA0102BF
:100B900008BF704711F0004302D5404261EB4101AC
:100BA0005FEA010C02BF84460146002043F0B643D1
:100BB00008BFA3F18053A3F50003BCFA8CF2083AF6
:100BC000A3EBC25310DB01FA02FC634400FA02FCFF
:100BD000C2F12002BCF1004F20FA02F243EB020006
:100BE00008BF20F00100704702F1200201FA02FC68
:100BF000C2F1200250EA4C0021FA02F243EB02005B
:100C000008BF20EADC7070474FF0FF0C1CEAD0529E
:100C10001EBF1CEAD15392EA0C0F93EA0C0F6FD05F
:100C20001A4480EA010C400218BF5FEA41211ED03D
:100C30004FF0006343EA501043EA5111A0FB013129
:100C40000CF00040B1F5000F3EBF490041EAD371FE
:100C50005B0040EA010062F17F02FD2A1DD8B3F17A
:100C6000004F40EBC25008BF20F00100704790F0E9
:100C7000000F0CF0004C08BF49024CEA502040EA3B
:100C800051207F3AC2BFD2F1FF0340EAC250704701
:100C900040F400004FF00003013A5DDC12F1190F3F
:100CA000DCBF00F000407047C2F10002410021FAB1
:100CB00002F1C2F1200200FA02FC5FEA310040F1C9
:100CC000000053EA4C0308BF20EADC70704792F042
:100CD000000F00F0004C02BF400010F4000F013A7A
:100CE000F9D040EA0C0093F0000F01F0004C02BF75
:100CF000490011F4000F013BF9D041EA0C018FE7E4
:100D00000CEAD15392EA0C0F18BF93EA0C0F0AD0E9
:100D100030F0004C18BF31F0004CD8D180EA01000F
:100D200000F00040704790F0000F17BF90F0004FA8
:100D3000084691F0000F91F0004F14D092EA0C0F8A
:100D400001D142020FD193EA0C0F03D14B0218BF1D
:100D5000084608D180EA010000F0004040F0FE4063
:100D600040F40000704740F0FE4040F440007047FF
:100D70004FF0FF0C1CEAD0521EBF1CEAD15392EA7E
:100D80000C0F93EA0C0F69D0A2EB030280EA010C6E
:100D900049024FEA402037D04FF0805343EA111107
:100DA00043EA10130CF000408B4238BF5B0042F165
:100DB0007D024FF4000C8B4224BF5B1A40EA0C000A
:100DC000B3EB510F24BFA3EB510340EA5C00B3EB3C
:100DD000910F24BFA3EB910340EA9C00B3EBD10F2A
:100DE00024BFA3EBD10340EADC001B0118BF5FEA7C
:100DF0001C1CE0D1FD2A3FF650AF8B4240EBC250A5
:100E000008BF20F0010070470CF0004C4CEA502065
:100E10007F32C2BFD2F1FF0340EAC250704740F4B4
:100E200000004FF00003013A37E792F0000F00F0A6
:100E3000004C02BF400010F4000F013AF9D040EA24
:100E40000C0093F0000F01F0004C02BF490011F4B8
:100E5000000F013BF9D041EA0C0195E70CEAD153B0
:100E600092EA0C0F08D142027FF47DAF93EA0C0F97
:100E70007FF470AF084676E793EA0C0F04D14B027B
:100E80003FF44CAF08466EE730F0004C18BF31F02D
:100E9000004CCAD130F000427FF45CAF31F0004327
:100EA0007FF43CAF5FE700BF4FF0FF3C06E000BFC0
:100EB0004FF0010C02E000BF4FF0010C4DF804CDE3
:100EC0004FEA40024FEA41037FEA226C18BF7FEAF3
:100ED000236C11D001B052EA530C18BF90EA010FF5
:100EE00058BFB2EB030088BFC81738BF6FEAE17084
:100EF00018BF40F0010070477FEA226C02D15FEA20
:100F0000402C05D17FEA236CE4D15FEA412CE1D08B
:100F10005DF8040B704700BF844608466146FFE752
:100F20000FB5FFF7C9FF002848BF10F1000F0FBD34
:100F30004DF808EDFFF7F4FF0CBF012000205DF82D
:100F400008FB00BF4DF808EDFFF7EAFF34BF0120B2
:100F500000205DF808FB00BF4DF808EDFFF7E0FF4B
:100F600094BF012000205DF808FB00BF4DF808ED9C
:100F7000FFF7D2FF94BF012000205DF808FB00BFFF
:100F80004DF808EDFFF7C8FF34BF012000205DF8E1
:100F900008FB00BF42000ED2B2F1FE4F0BD34FF060
:100FA0009E03B3EB126209D44FEA002343F00043DF
:100FB00023FA02F070474FF00000704712F1610F02
:100FC00001D1420202D14FF0FF3070474FF00000D4
:100FD000704700BF7BB972B90029BEBF00204FF037
:100FE000004106E008BF00281CBF6FF000414FF031
:100FF000FF3000F057B8ADF1080C6DE904CE0029C0
:1010000009DB002B1ADB00F0D7F8DDF804E0DDE99E
:10101000022304B07047404261EB4101002B1BDB0F
:1010200000F0CAF8DDF804E0DDE9022304B0404234
:1010300061EB4101524263EB43037047524263EB61
:10104000430300F0B9F8DDF804E0DDE9022304B061
:10105000404261EB41017047524263EB430300F0B1
:10106000ABF8DDF804E0DDE9022304B0524263EBA3
:101070004303704753B94AB9002908BF00281CBF71
:101080004FF0FF314FF0FF3000F00CB8ADF1080C1D
:101090006DE904CE00F090F8DDF804E0DDE902230C
:1010A00004B07047704700BF4FF0FF3C06E000BF40
:1010B0004FF0010C02E000BF4FF0010C4DF804CDE1
:1010C0004FEA410C7FEA6C5C4FEA430C18BF7FEAA1
:1010D0006C5C1BD001B050EA410C0CBF52EA430CCF
:1010E00091EA030F02BF90EA020F0020704710F14F
:1010F000000F91EA030F58BF994208BF90422CBFDE
:10110000D8176FEAE37040F0010070474FEA410CD6
:101110007FEA6C5C02D150EA013C07D14FEA430CF4
:101120007FEA6C5CD6D152EA033CD3D05DF8040B65
:10113000704700BF8446104662468C461946634697
:1011400000E000BF01B5FFF7B7FF002848BF10F16E
:10115000000F01BD4DF808EDFFF7F4FF0CBF0120B3
:1011600000205DF808FB00BF4DF808EDFFF7EAFF2F
:1011700034BF012000205DF808FB00BF4DF808EDEA
:10118000FFF7E0FF94BF012000205DF808FB00BFDF
:101190004DF808EDFFF7CEFF94BF012000205DF869
:1011A00008FB00BF4DF808EDFFF7C4FF34BF012076
:1011B00000205DF808FB00BF2DE9F04786468C460D
:1011C0000846089E154674461946002B40F0C2801A
:1011D0008542B2FA82F245D94AB1C2F1200300FA3F
:1011E00002FC2EFA03F3954043EA0C0C94404FEABC
:1011F000154EA8B2BCFBFEF8230C0EFB18CC08FB66
:1012000000F943EA0C43994528D9EB1808F1FF3758
:1012100004D2994502D9A8F102072B44A3EB090394
:10122000A4B2B3FBFEFC0EFB1C330CFB00F044EA43
:101230000344A04214D92C190CF1FF3304D2A0426C
:1012400002D9ACF102032C44241A43EA07401EB130
:10125000D440002334607360BDE8F0874746DDE783
:101260006346F1E792BB431B01214FEA154EAFB233
:10127000B3FBFEFC200C0EFB1C330CFB07F840EA12
:101280000343984562D9EB180CF1FF3004D298451E
:1012900002D9ACF102002B44A3EB0803A4B2B3FBC8
:1012A000FEFC0EFB1C330CFB07F744EA0344A74289
:1012B0004ED92C190CF1FF3304D2A74202D9ACF15C
:1012C00002032C44E41B43EA0040C0E7C2F12003C0
:1012D00020FA03F1954090402EFA03F303434FEABE
:1012E000154EAFB2B1FBFEFC0EFB1C10190C0CFB33
:1012F00007F841EA0041884504FA02F422D9691846
:101300000CF1FF3004D2884502D9ACF10200294427
:10131000A1EB08019BB2B1FBFEFC0EFB1C110CFB08
:1013200007F743EA01439F420ED9EB180CF1FF3156
:1013300004D29F4202D9ACF102012B44DB1B41EAEB
:10134000004192E76046E3E76146F7E76046A3E7BE
:101350006346B7E7834206D916B9002108467BE702
:10136000C6E900E0F9E7B3FA83F78FB9834201D306
:10137000724508D8BEEB020460EB030301209C46D3
:101380001EB9002168E73846FAE7C6E9004CF8E7DD
:10139000C7F1200CBB4022FA0CF41C432EFA0CF1CE
:1013A00020FA0CF3B84001434FEA14490EFA07F54E
:1013B000B3FBF9F81FFA84FE09FB18300B0C08FB8D
:1013C0000EFA43EA00439A4502FA07F240D9E318BD
:1013D00008F1FF3004D29A4502D9A8F10200234453
:1013E000A3EB0A0389B2B3FBF9F809FB183308FB36
:1013F0000EFE41EA03418E452CD9611808F1FF33F6
:1014000004D28E4502D9A8F10203214443EA0040E8
:10141000A0FB0298A1EB0E014145CE46434602D304
:1014200006D14D4504D2B9EB020E68EB0403013836
:10143000002EA6D0B5EB0E0261EB030101FA0CFC05
:1014400022FA07F34CEA0303F940C6E9003198E7B2
:101450004046C5E74346D9E710F8012B11F8013B98
:10146000012A28BF9A42F7D0D01A7047034611F8D4
:10147000012B03F8012B002AF9D17047034613F81A
:10148000012B002AFBD1181A013870470000000018
:10149000B0B50D4686B0044600AF63492846FFF755
:1014A0006FFD00B1604D2846FEF7E6FF5CA3D3E96F
:1014B0000023FFF739F8FFF749FA0B2C00F29E8062
:1014C000DFE804F0062C37424C56606A747E88923E
:1014D0005649FFF799FBFFF75DFD48F2403203469E
:1014E0000021534800680AF0ACFDA0B151480368E0
:1014F0005B070ED06D4688B06A464F4BC2E9053493
:10150000032342F8103F00234FF4C25102F018F8B1
:10151000AD464FF0FF301837BD46B0BD4749FFF725
:1015200073FBFFF737FD44F2A01203460221444843
:10153000D8E74249FFF768FBFFF72CFD44F2A01201
:10154000034603213F48CDE73C49FFF75DFBFFF72A
:1015500021FD44F2A01203460321E8E73749FFF7D3
:1015600053FBFFF717FD44F2A01203460221E9E7FF
:101570002E49FFF749FBFFF70DFD48F240320346C5
:101580000121AEE72949FFF73FFBFFF703FD48F2D2
:10159000403203460321A4E72449FFF735FBFFF758
:1015A000F9FC48F24032034602219AE72349FFF74B
:1015B0002BFBFFF7EFFC44F2A01203460021B6E735
:1015C0001E49FFF721FBFFF7E5FC44F2A01203469A
:1015D0000121B7E71949FFF717FBFFF7DBFC44F2DE
:1015E000A01203460121A2E71449FFF70DFBFFF704
:1015F000D1FC44F2A01203460021A3E70D48036882
:101600005A0786D0104B7B6102233B61002307F110
:1016100010024FF4825101F093FF67E7AFF30080AF
:101620007B14AE47E17A843F0000C8420040034784
:10163000B4000020C0020020A80701080040834633
:10164000AC000020B000002090070108000000005E
:10165000B0B50D4686B0044600AF2B492846FFF7CB
:101660008FFC00B1284D2846FEF706FF24A3D3E9DE
:101670000023FEF759FF02460B4600202349FEF7E0
:101680009BFDFFF763F98CB1012C0FD02048036854
:101690005A072DD01F4B7B6102233B61002307F1CA
:1016A00010024FF4825101F04BFF0DE01A49FFF791
:1016B000ABFAFFF76FFC0346184842F2D00200680D
:1016C00021460AF0BEFCA8B1114803685B070FD0A1
:1016D0006D4688B06A46124B53610134032394610E
:1016E00042F8103F00234FF4C25101F029FFAD46EC
:1016F0004FF0FF301837BD46B0BD00BFAFF30080DC
:101700007B14AE47E17A843F0000C8420000F03FFE
:10171000C0020020BA07010800400346A8000020CC
:10172000D2070108000000002DE9F04704468AB006
:10173000884617460CF06CFF0A220023FFF79AFC3C
:10174000B8F1010F06460D4608D1CDE900012A4A3D
:10175000082120460BF004FB002012E07F68274898
:101760003946FFF779FE78B125483946FFF774FE10
:1017700050B12046234A3B4601210BF0F1FA6FF0AD
:1017800004000AB0BDE8F0873046294618A3D3E923
:101790000023FFF71FFC06460D46104619461A4A5D
:1017A0000023FFF717FC80460F46104619464EF6F9
:1017B00060220023FFF70EFC824689461046194638
:1017C0004FF47A720023FFF705FCCDE904A9CDE9B7
:1017D0000601CDE90823CDE90287CDE900650B4A72
:1017E000082120460BF0BCFAB6E700BFAFF300803B
:1017F000005C2605000000008A0E01089B0E01080F
:101800009E0E0108A70E010880EE3600BE0E0108EC
:101810002DE9F04F87B00546039117461E468368B1
:1018200004AA5B689847002831DBDDE9044AA7FB7E
:1018300004B307FB0A37584619A3D3E900233946F6
:10184000FFF718FCDFF8608002904FF0FF39D945B0
:1018500078EB07031ED3A6FB04B406FB0A4410A3CF
:10186000D3E9002321465846FFF704FCD94578EB1D
:10187000040403460ED30299AA6899420DD3BDF819
:101880004010009114682846DDE90221A04707B006
:10189000BDE8F08F6FF08500F9E76FF01500F6E70F
:1018A00000CA9A3B00000000FFC99A3B014602486B
:1018B00083685B68184700BF78F100082DE9F04F96
:1018C000C5B0002416AF834D3C629222214607F139
:1018D00024000DF035FB2B6803F00703022B0BD916
:1018E0007D4BFB610223BB614FF48651234607F118
:1018F0001802284601F024FE784EDFF8E481DFF874
:10190000E4C1334600224FF4807E0CEBC20103C9D0
:10191000013203F108040C2AC3F80080A3F804E0A4
:1019200084E8030003F11403EFD16F480CF0D7FCF7
:10193000002800F0A680DFF8B081D8F808307B607E
:10194000DFF8A8B1B2464FF000097B6866481C6812
:101950005A4600235146A04790B12B685A070FD032
:101960006C4688B016AA624BC2E90539032342F8D7
:10197000103F584800234FF4C25101F0E1FDA54645
:1019800009F10109B9F10C0F0AF1140ADDD141F690
:10199000E8200CF0EEFDDFF85CA1B1460024D8F899
:1019A0000830554AD3F800B0544B49464046D84712
:1019B00000286DD02B685B070FD0EB4688B016AAC5
:1019C0004F4BC2E90534032342F8103F414800233E
:1019D0004FF4C25101F0B4FDDD4601340C2C09F185
:1019E0001409DCD1474C9622002107F120000DF0AC
:1019F000A7FA2068FEF740FD8246E06A8B46FEF7B4
:101A00003BFDCDE91401A06AFEF736FDCDE91201D8
:101A1000606AFEF731FDCDE91001206AFEF72CFD6A
:101A2000CDE90E01E069FEF727FDCDE90C01A069C3
:101A3000FEF722FDCDE90A016069FEF71DFDCDE943
:101A400008012069FEF718FDCDE90601E068FEF700
:101A500013FDCDE90401A068FEF70EFDCDE90201FA
:101A60006068FEF709FD5246CDE900015B46264954
:101A700007F1200008F038F907F120000AF0C9FA50
:101A80005EE7224808F0E4F8BC37BD46BDE8F08FB9
:101A90001F4A93785178D0781B0243EA01431843D8
:101AA000FFF75EF81B4B4FF096411860FEF7A2FF60
:101AB0001949FFF7A9F85146FFF75AF91749FFF7F7
:101AC000A3F8174B53F82410FEF794FF0D4B43F87F
:101AD000240082E7D002002076050108FC240020C3
:101AE00080A8120148000020F0F10008F0F800087A
:101AF000A00501083333334BE8F80008E0F800088C
:101B0000BD050108C8240020D90501088B0501087E
:101B1000802B0020F82400200000484300007A4475
:101B20000000002000B589B000220023CDE9062383
:101B30000023CDE90333CDE9013300930449054B7C
:101B400005484FF4806206F01BFF09B05DF804FB06
:101B500080030020BD18000840140020F7B51F4C7A
:101B6000A5686B6CFBB96B6B1BBB1C4F1C4DA36852
:101B70009B69E3B101220DF107013846984701281E
:101B800015D19DF807202B685A2A17D115490870DE
:101B9000622BECD8134909780029E8D0591C296038
:101BA0001149CA54E3E7204698470028DBD103B027
:101BB000F0BD0A4898470028D7D1F8E70A2AE7D1AC
:101BC000002BE5DD08490026CE54002307480022FB
:101BD00006F052FF034B2E601E70C8E764F1000848
:101BE000EC250020EC2B0020882B0020EC020020AC
:101BF0002DE9F0435B4CA5B0236803F00703022BEB
:101C00000AAF0BD9584B7B6102233B61002307F1DC
:101C100010024FF48651204601F092FC534D2846A5
:101C20000CF05DFB034688B9226851070AD0504A80
:101C30007A6102223A614B4807F110024FF4825157
:101C400001F07EFC6C37BD46BDE8F083AE68002E27
:101C50007AD0B36C002B77D04649002228469847AB
:101C6000B36A002B7AD1236803F00703022B0BD948
:101C7000414B7B6102233B613A48002307F110028C
:101C80004FF4865101F05CFC3C4D3D4EDFF8F48092
:101C90004FF0FF334FF0FF323946284606F042FF3F
:101CA00003460028CED1226802F00702022A0FD98B
:101CB000E94688B00AAA4FF40071C2E9056791832A
:101CC00042F8108F27484FF4E65101F039FCCD4619
:101CD0003B785A2BDCD12C4A0992131F0893A2F1AE
:101CE00008030793A2F10C030693A2F110030593D6
:101CF000A2F114030493A2F118030393A2F11C03AD
:101D00000293A2F120030193A2F1240300931F493F
:101D1000A2F1280338462C3A08F00EF80C28B5D06A
:101D200023685B07B2D0E84688B00AAA184BC2E91C
:101D30000530032342F8103F0A4800234FF4C251F4
:101D400001F0FEFBC546A1E723685A073FF47AAFCE
:101D5000104B7B6102233B6100236CE728469847C8
:101D600081E700BFE00200201E06010864F10008C0
:101D7000310601085D1B00087C060108EC0200200A
:101D80008E060108030000011C2600209D060108A4
:101D9000C40601084906010800B589B000220023E5
:101DA000CDE906230023CDE90333CDE901330093C8
:101DB0000449054B05484FF4806206F0E1FD09B087
:101DC0005DF804FBC0070020F11B0008F814002098
:101DD0002DE9F04F7B4CABB0236803F00703022BD7
:101DE0000AAF0AD9784BFB620223BB6207F12802D3
:101DF0004FF4865120460AF021F900F007FB734D9D
:101E000028460CF06CFA88B9236858070AD0704B42
:101E1000FB6202236B48BB6207F128024FF4825138
:101E20000AF00CF98437BD46BDE8F08FAE68002E8D
:101E30007AD0B36C002B77D06649002228469847A9
:101E4000B36A002B76D1236803F00703022B0AD96B
:101E5000614BFB6202235B48BB6207F128024FF42F
:101E600086510AF0EBF8DFF87481DFF874A1A8F16D
:101E7000040907F118064FF0FF324FF0FF333146E7
:101E8000504606F04FFE05460028CBD1236803F0EC
:101E90000703022B11D9EB4688B00AAA514B4948D7
:101EA000C2E905364FF4007393834F4B42F8103F5D
:101EB0004FF4E6510AF0C2F8DD463B7E412B55D186
:101EC0004A4A0792131F0693A2F108030593A2F151
:101ED0000C030493A2F110030393A2F114030293E1
:101EE000A2F118030193A2F11C030093CDE9089815
:101EF000A2F120033E49243A304607F01DFF0C288A
:101F000023681AD05A07B4D06D4688B00AAA394B54
:101F1000C2E90530032342F8103F2A484FF4C2516A
:101F20000AF08CF8AD46A4E7236859073FF47AAF6E
:101F3000314B6DE72846984785E703F00703022BEE
:101F40000AD92E4B7B611F48022307F110024FF480
:101F500086513B610AF072F8294E56F8041BE8B22C
:101F600001350AF08FF80C2DF7D182E75A2BF3D107
:101F70001E4A0792131F0693A2F108030593A2F1CC
:101F80000C030493A2F110030393A2F11403029330
:101F9000A2F118030193A2F11C030093CDE9089864
:101FA000A2F120031749243A304607F0C5FE0C2859
:101FB000D2D023685B073FF45CAF6D4688B00AAAB5
:101FC000114BA5E7E4020020E906010878F10008BA
:101FD000FC0601080D2000087C06010850260020A0
:101FE0001C0300208E060108030000014826002083
:101FF000130701083A070108490601085A070108B2
:10200000242600209D060108C4060108F7B5214CCE
:10201000A5686B6C13BB6B6B33BB1E4F1E4DA36867
:102020009B69FBB101220DF1070138469847012851
:1020300018D19DF807202B685A2A01D0412A18D1BF
:10204000164901200870622BE9D814490978002943
:10205000E5D0591C29601249CA54E0E72046984748
:102060000028D8D103B0F0BD0A4898470028D4D141
:10207000F8E70A2AE7D1002BE5DD09490026CE540E
:1020800000230848002206F0F7FC044B2E601E7067
:10209000C5E700BF78F1000820260020512C002061
:1020A000ED2B00201C03002000B589B00022002386
:1020B000CDE906230023CDE90333CDE901330093B5
:1020C0000449054B05484FF4006206F059FC09B07D
:1020D0005DF804FB000C0020D11D0008B0150020A5
:1020E00070B50546906814460CF042FC0646E06860
:1020F0000CF03BFCFEF72AFC0146F0B2FFF7A8FA11
:102100002846034A08210AF02BFE002070BD00BFBC
:102110006C07010830B52B4B87B018680CF0DFF85E
:10212000034680B928480268550708D0274A059217
:10213000022204924FF4825104AA01F001FA4FF0F6
:10214000FF3007B030BD224B18680CF0C8F80346CA
:1021500028B91D4802685407F1D01E4AE7E71E4B14
:1021600018680CF0BCF8034628B9174802685107F4
:10217000E5D01A4ADBE71A4C20680CF0B0F80346A9
:1021800028B9114802685207D9D0164ACFE7164934
:102190000020FFF75DFA14490120FFF759FA206883
:1021A0004FF4D26342F2D002022109F04AFF002428
:1021B0000025E0B229460134FFF76AF90C2CF8D16A
:1021C0000020BEE7B4000020C0020020E4070108A0
:1021D000B0000020FE070108AC000020180801082C
:1021E000A8000020320801080000204138B50C4644
:1021F0000B2817D8DFE800F0B1A293748455653638
:10220000462718065C4B5D4801EB41041D19195D1A
:1022100009F024FF69785A4809F020FFA978594845
:1022200009F01CFF002038BD534B574801EB410417
:102230001D19195D09F012FF6978544809F00EFF65
:10224000A9785348ECE74C4B524801EB41041D1967
:10225000195D09F003FF69784F4809F0FFFEA9787E
:102260004E48DDE7444A4E4801EB4103D518D15CA6
:1022700009F0F4FE69784B4809F0F0FEA9784A4865
:1022800009F0ECFE3C4B494804EB44041D19195D70
:1022900009F0E4FE6978464809F0E0FEA97845486F
:1022A000BEE7354A444801EB4103D518D15C09F03B
:1022B000D5FE6978414809F0D1FEA978404809F077
:1022C000CDFE2D4B3F4804EB44041D19195D09F068
:1022D000C5FE69783C4809F0C1FEA9783B489FE7F4
:1022E000254A3B4801EB4103D518D15C09F0B6FE05
:1022F0006978384809F0B2FEA978374809F0AEFE8F
:102300001D4B364804EB44041D19195D09F0A6FE67
:102310006978334809F0A2FEA978324880E7164B65
:10232000314801EB41041D19195D09F097FE6978E8
:102330002E4809F093FEA9782D4871E70E4B2D48E1
:1023400001EB41041D19195D09F088FE69782A48DE
:1023500009F084FEA978294862E7074B284801EB79
:1023600041041D19195D09F079FE6978254809F0C5
:1023700075FEA978244853E79A08010814FA000862
:102380001CFA000824FA0008FCF9000804FA000806
:102390000CFA0008E4F90008ECF90008F4F9000868
:1023A000B4F90008BCF90008C4F90008CCF9000829
:1023B000D4F90008DCF9000884F900088CF9000859
:1023C00094F900089CF90008A4F90008ACF9000889
:1023D00054F900085CF9000864F900086CF9000879
:1023E00074F900087CF900083CF9000844F9000879
:1023F0004CF9000824F900082CF9000834F9000809
:102400000CF9000814F900081CF900082DE9F04146
:1024100000AFFFF77FFE2C4D002455F834000BF081
:102420005EFF0346B0B92948026852070DD06D46D9
:1024300088B06A462649C2E90514032142F8101FF4
:102440004FF4C25101F07CF8AD464FF0FF30BD466D
:10245000BDE8F0810134242CDFD11B4C002501267E
:10246000E3882068217943F40032D0F810C0D0F816
:10247000088013F0010FDCF8003006FA01FE14BFEB
:102480004EEA030323EA0E03CCF80030D8F80030FC
:10249000984798B10D4803685B07D6D06C4688B062
:1024A0006A460C4BC2E90535032342F8103F00236E
:1024B0004FF4C25101F044F8A546C6E70135242D7A
:1024C00004F10804CCD1C2E70CF90008E8020020AE
:1024D00052080108740801087FB50D48036803F02D
:1024E0000703022B09D90B4B059302230493002306
:1024F00004AA4FF4865101F023F8FFF713FBFFF70E
:10250000D3FDFFF749FC002007B05DF804FB00BFD6
:10251000BC020020AA0801082DE9F84300AF81465B
:102520008846154600F0BAF8C36804461BB94369EB
:102530001A78002A55D10023E36063684B4558F8A8
:10254000232009DB444B6361204600F08DF84FF0F7
:10255000FF30BD46BDE8F883511C616116782D2E11
:10256000F0D1911C61615178A1602D2904D192783C
:1025700062B901336360E5E741B9374B63613146C6
:1025800028460CF009FA0028DED0A660A668284686
:1025900031460CF001FA3A2E626900D030BB137854
:1025A00013B96368013363602368ABB12B783A2BAE
:1025B00012D02A48036859070ED06D4688B06A4683
:1025C000274BC2E90536032342F8103F00234FF49E
:1025D000C25100F0B5FFAD46204600F045F83F205F
:1025E000B7E75A1C42611B788360CFE743783A2BE8
:1025F0000BD000232361137813B963680133636040
:10260000204600F031F8A068A3E71378616812480B
:102610002BB901318945616004DD58F82120C4E9F6
:102620000420EAE760612D783A2D04D1204600F0BD
:102630001BF828468DE72268002ACDD0074802689B
:102640005207C9D06D4688B06A460649C2E90516E8
:10265000032142F8101FBAE7EA0F0108B002002078
:10266000D8080108ED080108074B02681A60074BFB
:1026700042681A60064B82681A60064BC2681A608C
:10268000054B02691A607047D4000020D00000207A
:102690005C26002058260020542600200048704761
:1026A000B80000202DE9F04F91B08407009302F0AC
:1026B00004030293C2F3C20303F10103DDF868903F
:1026C000039205460E46059340F0BA81041D30B1D1
:1026D000072909D86FF01B0011B0BDE8F08F01F099
:1026E0000706341DC6F10806009B4FF00008591E6E
:1026F0004FF0040A4FF0FF330193CDF810804746A6
:10270000C34653460DB1009A22600598002800F395
:10271000E8809848009A824203D397488242C0F0EA
:10272000E080039AA4EB050E92074FEA9E0000F1A9
:1027300003810F2F00F2B180002D00F0058107F119
:1027400040020DEB020C019A0CF8200C0CF8102C36
:10275000049801300490E7E07A285DD84B280ED821
:10276000472859D829282DD8252852D054D8202890
:102770007AD02338D0F1000B4BEB000B74E04C38CF
:102780002E2849D8DFE800F07048484848484848B3
:10279000484848484B484848484848484859484BA2
:1027A0004B595959704B6D487048184B184848821E
:1027B0007F4B48484B487F0000204FF0000B4FF004
:1027C000040A38E02A38C0B2012202FA00F010EA06
:1027D0000E0F49D110F0625C2FD110EA020B43D0EA
:1027E0006046013C5444B4FBFAF40AFB04F4002DA7
:1027F00061D0A3EB050CA4446645FFF46BAF002841
:1028000068D1042B47D159F8043B236004340423D6
:102810002AE0019A013A01924FF0000B24E011F8EE
:10282000010C6C2834D111F8023C00206C2B83463B
:10283000C5D14FF0080A5346D3E709F1070929F03B
:1028400007090734F9E802AB24F0070435B106980C
:102850002044B0423FF63EAFC4E900AB08344FF02D
:10286000000B4FF0080A534611F8010F002878D0EA
:10287000BBF1000F7FF470AF2528F5D1019B013328
:1028800001934FF0010B4FF0040AECE7584694E730
:1028900000208346A5E7082B02D06FF015001BE748
:1028A00009F1070929F00709F9E80223C4E900231F
:1028B00008340823D8E768B9042B02D109F10409C8
:1028C000A4E7082BE9D109F1070929F0070909F163
:1028D0000809EDE7059A013A059259F8042B009290
:1028E00010E7039A900720D5A4EB050E4FEA9E004F
:1028F0004FF0010CBEF5007FCFD20F2FCDD8F5B130
:1029000007F140020DEB020EC0B2019A0EF8200C46
:102910000EF8102CBCF1000F3FF41AAF60F07F00EE
:102920000EF8200C08F101080137C5F10802043443
:1029300006924FF6DA7E97E74FF0000CDAE7BCF12B
:10294000000F01D00136EFE7029802360028EBD1E4
:102950000098CDE90631FEF791FDDDE90631064428
:10296000E2E7631BB3F5806F97D23DB9A6F1080487
:10297000E018B1E604F00008AC270108029A2860CC
:102980009B082B709DF81030C2B1EB7085F8028067
:10299000B8F1000F05D008A80022C5F1010C97423C
:1029A0000ED1C5F101030DF120094FF0000A01938A
:1029B0000DF1300B574512D1601B8DE66B70E5E7CA
:1029C00010F8013B190608D504EB0C0E764503F010
:1029D0007F03FFF47FAE04F8013B0132DFE7B8F17B
:1029E000000F03D099F90020002A17DB029BD3B116
:1029F0001AF80B2004F8012B0022019B98182044A0
:102A00008642FFF467AE99F8000004F8010B0099C4
:102A1000039220460CF06CFA039A14440AF1010A5E
:102A200009F10109C6E799F8002055F82230009312
:102A3000029B45F822300098FEF720FD421CDCE79F
:102A40006FF00D0048E600BF2DE9F04F95B000AFE4
:102A500090F802B0BB61BB6F7A62C3F3C003044657
:102A60003B618A4641B9457800780BEB80002044F1
:102A7000554517D8A0EB040AE3787B61BBF1000F42
:102A800002D0BB6FD80716D47B6953BB7B6A1BB1DE
:102A9000BA69514620469847554628465437BD46A0
:102AA000BDE8F08F461C3046FEF7E8FC01303044AC
:102AB0000AF1010ADCE723783B629B00FB603B6A7A
:102AC0006268FA6104EB83097B6A002B40F00281A3
:102AD0005546C84609EB0B0A0026D04555D1D944C6
:102AE00013E0BB6F9907D1D523783B6299469B00D1
:102AF000FB606368FB617B6A04EB8909002B7ED174
:102B00005546BBF1000F53D15E46BB6F13F0050F66
:102B10007B6909EB430ABB6F03F002030CBF4FF064
:102B2000020B4FF0010B7B62D145B6D019F8021BA6
:102B300019F8013C54F82380AA4B984502D3AA4BBC
:102B400098453CD33B69002B46D0F86909F0E5FA7B
:102B5000002841D0A548036813F0060F13D0E846BB
:102B60008AB06A46A24B5361FB69C2E906314FF451
:102B7000007313849F4B42F8103F00234FF412510F
:102B800000F0DEFCC546023DCEE718F8013B54F8E4
:102B90002300FEF773FCFB6F01303BB1D7F88030A8
:102BA0009E423EBFFB6F23F816000136054494E7B2
:102BB000BB6F13F004061CBF7E6AD944A5E73B69CE
:102BC00023B1F86909F0A9FA0028C3D1BB6FDA076D
:102BD00005D4A5EB0B05A7E77B6A002BA4D04046E4
:102BE000FEF74CFCFB6F43B1D7F880309E423FBFED
:102BF000FA6F431C22F816300136054494E7BBF106
:102C0000000F6DD0BB6F13F004066CD0D8460026C1
:102C100007F140005A4649460CF06AF97B695B00AF
:102C20007B607B69D94409EB4303BB60BB6F03F056
:102C300002033B60BB684B4557D1B96F6378B86FEF
:102C4000890706EB030254BF4FEA58010021C5076C
:102C5000D2B200F19A8010F0040F14BF4046002059
:102C6000FB616270A070E170BA69F9687B6A204606
:102C70009847051EFFF611AF3B6A2370FB6963702E
:102C80007B69E3704146BA697B6A84F802B007F158
:102C900040009847B0F10008C0F2AE80FB68BA6906
:102CA000AAEB0B01C91A7B684846C91A7B6A984788
:102CB0000028C0F2A380A84408EB00054FF0000BE9
:102CC00007F1300AB34562D30021BA697B6A08462E
:102CD0009847E2E65E464FF0000807F1300099E7BA
:102CE0005E46D8469AE7B04698E719F8021B3D4B76
:102CF00019F8015C54F82500984202D33A4B9842E7
:102D00001DD33B6923B1F86909F007FA002891D176
:102D10003B68FBB908F1280307F1280208F101001C
:102D200003EB020C07F1500353FA80F008F102089C
:102D30000CF8101C5FFA88F800F8105C7AE73B6921
:102D40002BB1F86909F0E9F900287FF473AFBB6F84
:102D5000DB0709D506F1280307F12802711C9E182C
:102D600006F8205CCEB265E7BB6F58077FF562AF0F
:102D700008F1280307F1280208F1010103EB02081A
:102D800008F8105C5FFA81F854E7002068E71BF848
:102D90000A3087F82F3054F82390FB6FFBB133F8DB
:102DA0001B80BA697B6A012107F12F009847002830
:102DB00024DB0544B8F1000F06D14846FEF75EFB60
:102DC00000F101081FFA88F8BA697B6A4146484653
:102DD0009847002812DB05440BF1010B72E7D7F886
:102DE0007C80DEE704F00008AC270108AC0200207C
:102DF000160901080400000145464EE605464CE66A
:102E0000014B1860704700BFD800002080B5054610
:102E10000E461746984606F0BFFA03460CF0E8F84F
:102E2000DFF81890044649F80030424630463946EB
:102E3000A84754F8090003F04BFF00BF080000004A
:102E40002DE9F047DFF85880044607464FF00109A6
:102E500014B93846BDE8F08794FAA4F5B5FA85F5BB
:102E600009FA05F32E0108EB05156FEA030A24EAB7
:102E700003042B7B002BEBD058F806301B694BB9B1
:102E80004644042273682846196807EA0A0700F0D6
:102E90001BFBDDE7284698470028D9D1F0E700BFA3
:102EA00064F5000830B51049104889B000220BF0D5
:102EB000B1FB0F4D0F4900220023CDE9062300246A
:102EC0000E23CDE90334CDE901440B4B00944FF4BC
:102ED0004072284605F054FD0849284605F082FC5A
:102EE000204609B030BD00BF012F0008281F002078
:102EF00068160020C02C00200D3200080B0E0108BF
:102F0000014805F021BF00BF4C0300202DE9F04728
:102F100080461E480F4609F0C7FC064678B30025D8
:102F20002846BDE8F087237B73B12368DB680BB1CB
:102F30002046984723681B69CBB963680422196847
:102F4000204600F0C1FA013610344C45EBD3B8F1FD
:102F5000000FE5D0002DE2D02846FFF771FF0546AF
:102F6000002FF7D00021642006F0FEF9F2E720469A
:102F700098470028E1D00AFA06F31D43E3E7044C22
:102F8000DFF8109005464FF0010ADEE770260020BA
:102F900064F5000874F5000808B5034608462BB12F
:102FA000044A136000F072FD002008BD6FF01500A8
:102FB000FBE700BFDC00002010B5044C237813B9F8
:102FC000034805F0C1FE0123237010BD5B2C0020D7
:102FD0004C03002010B50446084809F065FC5CB1BC
:102FE000BFF35B8F064B53E8001F013943E8001223
:102FF000002AF8D1BFF35B8F10BD00BF6826002008
:103000006C2600200020064BBFF35B8F014653E87F
:10301000000F43E80012002AF9D1BFF35B8F70471D
:103020006826002070B5FFF7EDFF084C084E0546F6
:10303000B44200D370BD63685B792BB123685B68D1
:1030400013B12946204698471034F1E764F500088B
:1030500074F5000810B5044C0449204609F09CFAA8
:10306000034B1C6010BD00BF640200202CFA000856
:1030700060260020094A0A4808B500231370094A4F
:103080001360094A4FF47A711360FFF785FFFFF769
:10309000E1FFBDE8084000F06FB900BF5C2C0020E4
:1030A000C3C80008682600206C26002001460022C4
:1030B0000148002309F091BA64020020014809F098
:1030C0002ABB00BF64020020024B0146186809F0C9
:1030D00074BB00BF60260020014809F0AABB00BFF6
:1030E00064020020F8B5314B187800285DD0FFF756
:1030F000E5FF044690B1BFF35B8F2D4B53E8001FF3
:10310000013943E80012002AF8D1BFF35B8F294D43
:10311000294EB54226D32046FFF7D6FF274B284C31
:103120001B68002B12DD0BF073FA0A220023FDF757
:10313000A1FFD4E90032C01A40F2E93361EB020189
:10314000984271F1000101D3FFF76CFFD4E900321E
:1031500013F57A7342F10002C4E90032BDE8F84089
:10316000FFF7BABF6B685B793BB121784B0706D597
:103170002B6821461B68284698471035C9E72388E5
:10318000626813F4E07FC3F38217C1F3C201EFD08A
:10319000002AEDD00B4BD21A42F38F0201232846AE
:1031A00000F0ACF9B842E8D3E2E7F8BD5B2C0020B0
:1031B0006C26002064F5000874F5000868260020DD
:1031C000201F0020A802002070B50D4D297861B99C
:1031D0000120FFF79BFE0B4C0B4EB44206D3FFF7CA
:1031E00081FF0028FBD101232B7070BD63685B79E0
:1031F0001BB1236820469B6898471034EDE700BF59
:103200005C2C002064F5000874F5000800212DE90D
:10321000F0470846FFF77AFE044618B34FF4FA78F1
:103220004FF000090BF0E4FE174B184F1A58184BDB
:10323000DFF860A01A60002544B12046FFF700FEC9
:10324000044618B94FF0FF384FF0FF39FFF74AFF37
:10325000064628B9B5B942464B46504605F09AFD98
:103260003546E9E74FF0FF384FF0FF39DAE72B68D2
:103270009B691BB100221146284698471035BD4274
:10328000F5D3E8E7044DFAE70800000074F50008FC
:10329000642600204C03002064F5000813B5134891
:1032A00009F002FB124B1B787BB14FF01003EFF3D8
:1032B000118483F31288BFF36F8FFFF713FF84F33A
:1032C0001188BFF36F8F02B010BD0A4B1B68002B33
:1032D000F9D00028F7D100220023CDE900230648C9
:1032E00042F21072002306F09FFAECE76C260020F1
:1032F0005C2C002064260020281F002010B5064BFF
:103300001B68044698472146A060044809F0E3F989
:10331000BDE81040FFF7C2BFDC00002064020020BF
:1033200000487047522C002008B50A460146024862
:1033300009F08CFA002008BD640200200146014813
:1033400009F08FBA64020020024B0348C01AC0087B
:10335000704700BFDCF4000864F50008044A054B20
:103360009B1AB1EBD30F34BF52F8310000207047E5
:10337000DCF4000864F500080B480C4B30B51B1A50
:103380000B4CDB0800210430994200D130BD10F80D
:103390003120256802F0070225F007052A4344F88A
:1033A000042B0131F0E700BFDCF4000864F50008ED
:1033B000A8020020F8B50B4F0B4DED1B0646ED089B
:1033C0000024AC4203D14FF0FF342046F8BD57F83B
:1033D000340020B13146FEF73FF80028F5D0013423
:1033E000EFE700BFDCF4000864F500082DE9F843BE
:1033F000884615461E4698B9224FDFF88C90044641
:1034000009E0384633462A464146FFF7EFFF84423B
:1034100038BF044610374F45F3D32046BDE8F88344
:103420001A4B1B4AD21AB5EBD20F28D203EBC503B5
:103430001C79B44228BF34464368164E1A7956F8B0
:10344000253002EB42020721914023EA010304F0F8
:10345000070101FA02F213430021032223FA02F0CA
:1034600000F00700814202F1030238BF01461E2A24
:10347000F4D123F007030B4346F82530CDE70024B1
:10348000DAE700BF64F5000874F50008DCF4000812
:1034900064F50008A8020020F8B5094D094BED1AA3
:1034A00006460F46ED080024AC4200D3F8BD0021CB
:1034B00022B23B4630460134FFF798FFA4B2F3E74F
:1034C00064F50008DCF4000838B50B4BC31A0D4650
:1034D0001B11114642680133137143680446997108
:1034E000FFF7DAFF63681D60636801225A71BDE867
:1034F0003840FFF761BD00BF64F50008014618467B
:1035000063B1002A14DB4B680A491B7951F8220089
:1035100003EB4303D84000F007007047064B074910
:10352000C91AB2EBD10F04D203EBC203187970476A
:1035300004207047A8020020DCF4000864F50008AD
:103540002DE9F04F8FB004AFC1F34A28B8600D46A3
:1035500091467B600C0DB8F1000F67D0002607F193
:1035600014034FF0040B4FF00A0AC7F80C80C7E9A8
:1035700007667E620193CDF808B0CDF800A007F190
:103580001C03F96832464846FFF75EFAB0F5006F53
:10359000034620D32A48036813F0060F17D06C4661
:1035A0008AB0D9F8041004AB264DC3E9055140F2A6
:1035B000FF71D9611A464FF400711984224B42F809
:1035C000103F4FF412513346FFF7BAFFA5462C3790
:1035D000BD46BDE8F08FC0F30A0804F11700184497
:1035E00020F0070080083B60FFF760FD68F353257B
:1035F000044690B13B68154AC7E9083600F110014E
:1036000007F11403F961CDE900A3CDF808B0F9681A
:1036100007F11C034846FFF717FA68F353257B6848
:10362000B9682A46204609F087F9D0E704F1170067
:1036300020F007008008FFF739FD0446EDE700BFE2
:10364000B4020020D7090108040000010DC90008D8
:103650002DE9F04F87B0DDE91269DDE9105A044623
:103660000F4693469846A6B31021CDF800903346F6
:1036700052460020CDF81490FFF714F8014605F1EA
:1036800017000844144B039104F007040BF0070BD8
:10369000E40020F0070003EA412344EA8B14800889
:1036A0001C43FFF703FD44EA0554054640B13EB113
:1036B0000399CDF80090334652461030FEF7F2FFE2
:1036C000434622463946284607B0BDE8F04F09F088
:1036D00033B93146D3E700BF00FE0F000EB403B587
:1036E00003AB014653F8042B0448019303F0C0FDDB
:1036F00002B05DF804EB03B0704700BF9FC900083B
:10370000CA0605D48B064CBF02490349FFF7E6BF42
:10371000704700BFE90F0108CB0A01082DE9F04FFF
:1037200089B09A46DDE914739DF84CB00593169B59
:10373000179E069204460D460493BBF1000F00F05D
:10374000858006F008030793FFF7EAFD06F00209FB
:103750000246002849D086492046FFF7BFFF804631
:10376000B9F1000F08D016F0440F40D181492A4624
:103770002046FFF7B3FF804406F0010353B17E4BB0
:103780007E4953F82B207E4B2046002A08BF1A465C
:10379000FFF7A4FF06F00803002B54D0794B7A49B9
:1037A00053F82B202046FFF799FF0546069B2BB1C7
:1037B00076491A462046FFF791FF0544BAF1000FFB
:1037C00005D0734952462046FFF788FF054445441B
:1037D000002F49D1049B002B4FD1F30700F1C1808A
:1037E00031462046FFF78CFFB5E08046B8E7694BCD
:1037F00018680028BFD0684B4FF47A791B68B5FB76
:10380000F3F54FF46161B5FBF0F300FB135509FBD1
:1038100005F54FF03C0CB3FBF1F201FB1231B5FBA7
:10382000F0FEB1FBFCF300FB1E550CFB131109FB72
:1038300005F50091B5FBF0F55849CDE901E52046C5
:10384000FFF74CFF97E706F00805AFE7BAF1010F65
:1038500006D1002F65D1049B002B7CD000250CE005
:10386000002FF8D04E485DE04E484F493B46224677
:1038700008F022FC049B002B69D0DFF83081DFF8D0
:103880003091049F3146102F204628BF1027FFF7A4
:1038900037FF4FF0000A554546DC059B49461A782C
:1038A0002046FFF71BFF4FF0010A1AF0070F03D164
:1038B00041462046FFF712FF57453CD9059B494634
:1038C00013F80A202046FFF709FF0AF1010ABAF1AE
:1038D000100FEAD1374920464FF0000AFFF7FEFEED
:1038E0005246059B9A5C344B995C11F0970F08BFC8
:1038F0002E2232492046FFF7F1FE0AF1010ABAF101
:10390000100F1DD01AF0070F03D141462046FFF7D4
:10391000E5FE57455246E4D841462046FFF7DEFE15
:10392000EBE720485D46A0E741462046FFF7D6FE7C
:103930000AF1010AAFE722492046FFF7CFFEC4E7AC
:10394000059B3B440593049BDB1B049399D1BBF17E
:10395000000F7FF442AF204609B0BDE8F04F09F0F8
:1039600011B8074A05492046FFF7B8FE38E700BFFF
:103970001B0A01081F0A010840FA00082312010867
:10398000160A010854FA0008440A01084A0A010804
:103990004E0A01087826002074260020280A010813
:1039A000D5C900089FC90008717200085B0A0108A8
:1039B000530A01085D0A010878260108EA0801088F
:1039C000590A01082DE9F0410F884B688E6886B0CE
:1039D00005460C469046C7F382175BB1144A9B1A02
:1039E00043F38F01002920DB2078C0F3C200FFF7EA
:1039F000B5FC03462146608851F8102B0197C2F3AD
:103A00004A22002A01EB0204C0F30B1008BF002178
:103A10000022CDE90408CDE902140092314628467F
:103A2000FFF77CFE06B0BDE8F0810023E2E700BFAF
:103A3000A802002073B542F20F738B4228BF0B46D9
:103A400005680F4A04460521684606F021F96368B7
:103A50000C495B6806460422284608F086FF636826
:103A60003246694628465B6808F07FFF636806496E
:103A70005B681722284608F078FF02B070BD00BFCF
:103A800071160108770A01085F0A0108074A002138
:103A90000123904206D8064A01B901231360054B61
:103AA0001860704740085B000121F2E740420F00B8
:103AB000742600207826002000230428CB604B6069
:103AC00098BF044B044A98BF53F820308A600B60BB
:103AD000704700BFB0FB0008F0F500080023084A5B
:103AE0000B60CB604B608A60064B074AD21AB0EB82
:103AF000121F3EBF03EB00139B680B60704700BFB3
:103B000034FB000864F5000874F500080023064A39
:103B100010B50C46CB604B608A6001461846FFF733
:103B20001DFC206010BD00BFF0F500082DE9F34139
:103B30000E4C0F4E0F4FDFF840800546B44203D3C2
:103B4000002002B0BDE8F081636859791B79002933
:103B50000CBF3A464246CDE900230821A368074A34
:103B6000284609F0FDF81034E8E700BF64F50008C6
:103B700074F50008A40A01089C0A0108AD0A0108AE
:103B80002DE9F74F0D4604460020FFF7DDFB6B687B
:103B90005B79074623B91E4A0321204609F0E0F865
:103BA0001C4B1D4ADFF874A00821204609F0D8F804
:103BB0001B4A0821204609F0D3F84FF000080FFAFD
:103BC00088F6BE4208F1010803D3002003B0BDE827
:103BD000F08F3246012300212846FFF78FFC002397
:103BE0003246194681462846FFF788FC314683460F
:103BF0000020FFF7B3FB5AF82B2001925AF8292036
:103C000000920346074A0821204609F0A9F8D6E7A2
:103C1000CE0A0108E00A0108EC0A0108C4FB00080A
:103C20000A0B0108470B01082DE9F84F52F8048CE4
:103C3000134D064640469B468A461746FDF71EFC36
:103C4000104B81469D4208D30F4A4346012130461E
:103C500009F086F86FF007040CE0A9684A46404670
:103C60000AF0A7FE074B044638B93B4652462946A0
:103C70003046D8472046BDE8F88F1035E2E700BF50
:103C800064F5000874F500085B0B010808B5024BE9
:103C9000FFF7CAFF002008BD813B0008014BFFF77A
:103CA000C3BF00BFF1C90008014BFFF7BDBF00BF94
:103CB000F9C90008014BFFF7B7BF00BF4D3E000830
:103CC000014BFFF7B1BF00BF45CA00081FB504464E
:103CD00002A901A8FFF728FB002808DA2046164AA7
:103CE000012109F03DF86FF0070004B010BD134A40
:103CF0000821204609F034F8019B114A082120468A
:103D000009F02EF8029B0F4A0821204609F028F8F6
:103D100003A8FFF713FB002806DA0B4A0821204608
:103D200009F01EF80020E0E7039B084A082120461E
:103D300009F016F8F6E700BF700B0108A10B0108A7
:103D4000C90B0108DE0B0108FB0B0108330C01084D
:103D500010B5C3699B681C792CB9044A012108F08D
:103D6000FFFF204610BD0120FCE700BF4D0C0108FD
:103D70002DE9F04F074685B0894698461546B2BBF7
:103D80001046FFF7E1FA0646D9F804305B7923B90B
:103D90002A4A0321384608F0E3FFDFF8A4B00024E4
:103DA000B44221DA3DB358F8243002930020FFF7E3
:103DB000CBFA002382469A450CD019460020039383
:103DC000FFF7CCFA029940220AF0F3FD039B80B979
:103DD000002B2CDA58F824301A4A012138460134D5
:103DE00008F0BEFFA642DEDC05B0BDE8F08F164647
:103DF000CAE70133DFE7A24600210E9B22B2484604
:103E0000FFF7F4FA0E9B834204460DD095B9514654
:103E10002846FFF7A3FA03465BF82420009203210B
:103E2000094A384608F09CFF0AF10104B8E7A246A7
:103E30001C46E1E758F82A30EEE700BF710C010894
:103E4000C4FB00089C0C0108860C01082DE9F74F03
:103E5000DFF850B0D3F804A00546884691461E46C8
:103E600000275BF8041B042250460AF0A2FD04461A
:103E700058B10137052FF4D10B4A5346012128468A
:103E800008F06EFF6FF0070408E0009706F10803E2
:103E9000A9F1020241462846FFF76AFF204603B017
:103EA000BDE8F08FC4FB0008B60C0108014B0360AD
:103EB00000207047D8FB000813B5044604F0D8FD75
:103EC000C0F307230193C0F307430093044A030E92
:103ED0000821204608F044FF002002B010BD00BFBA
:103EE000710E010810B5044604F0AEF8084A034606
:103EF0000821204608F034FF064A2046082108F031
:103F00002FFF0548214604F035FC002010BD00BFFE
:103F10000C0F01082B0F01081D3F000870B58EB073
:103F200004460D46D0F89C600AF0F7F902460BF003
:103F30005FF8254B1958254B002A18BF1346CDE9C9
:103F40000043234A234B28468C4218BF1346224A7B
:103F5000082108F005FFD4E90A23CDE9022394F9EA
:103F60000E300093237B1D4A2846082108F0F8FEF6
:103F700006A92022204604F045FC626E009203460A
:103F8000174A0821284608F0EBFE05A920460AF04A
:103F9000D4F9034630B1134A0821284608F0E0FE60
:103FA0000EB070BD059A6423B11ACDE900214B43D0
:103FB0000D4AB3FBF6F30821CDE9026328463346E8
:103FC00008F0CEFEECE700BF08000000350F010846
:103FD0005B0A010800220108380F0108440F01089C
:103FE000700F0108870F0108B40F0108F0B5002514
:103FF00093B0044629460AAF1C220BA80AF0A0FF82
:10400000144E1A22202138460AF09AFF21461248FF
:1040100004F0B0FB09AA4FF4006130460AF081F9C0
:1040200009996422C1F5006042434FF40063D20A4B
:10403000CDE90403CDE9023106922046CDE90057CF
:10404000064AA6F14003082108F08AFE284613B06C
:10405000F0BD00BF803800203D410008EB0F010893
:1040600010B5044604F00EF8034A03460821204622
:1040700008F076FE002010BD341001082DE9F34150
:1040800017460023044601AAB86801930A2101F0EB
:10409000A5FC019DC6B255B12B46154A012120460B
:1040A00008F05EFE019D284602B0BDE8F081042EB6
:1040B0000AD9104A33460121204608F051FE204615
:1040C00008F06BFE0125EEE77868FFF773F9B0F1B1
:1040D000000805DA7B68084A0121204608F040FE06
:1040E000002133460FFA88F20846FFF77FF9DAE736
:1040F0004A100108711001088810010837B51346ED
:1041000000220192054601AA58680A2101F066FCC6
:10411000019C4CB920EAE0700A2180FB010105F006
:1041200023F9204603B030BD2346034A0121284627
:1041300008F016FE019CF4E7A7100108F0B504464C
:10414000D0F89C6089B00D4607A90AF0F6F803463E
:1041500030B1104A0821284608F002FE09B0F0BD2F
:1041600020460AF0DAF80C4F079A002818BF0746D5
:10417000B11A6423CDE902214B43CDE90076B3FBAC
:10418000F6F3064ACDE9046308212346284608F0E1
:10419000E7FDE3E7870F0108350F0108C7100108A5
:1041A0002DE9F04387B00546684604F001F9009E0A
:1041B000184A194FDFF86480DFF86490142303FB7A
:1041C00000660821284608F0CBFD009CB44203D3CA
:1041D000002007B0BDE8F08323680BB11A7832B92C
:1041E00023463A46142101A805F052FD01AB424690
:1041F0000821284608F0B4FD20460AF070F8094B63
:10420000094A002808BF4B460821284608F0A8FDA7
:104210001434DBE7121201081C12010821120108F4
:104220000912010803120108261201088B1E022B35
:104230002DE9F04107468846144637D860681022B9
:10424000002105F087FFB8F1020F064607D1264A84
:1042500020230821384608F083FD336816E00A223F
:104260000021A06805F076FFC5B21F4A2B46082141
:10427000384608F075FDB8F1040F1AD0102D0DD096
:10428000202DEAD0082D0CD13378DBB2174A082153
:10429000384608F065FD0020BDE8F08133889BB208
:1042A000F4E7134A0821384608F05AFD6FF015006C
:1042B000F2E7E0681022002105F04CFF0D4A0346AA
:1042C00004460821384608F04BFD102D06D0202D5D
:1042D00007D0082DE5D1E4B23470DCE7A4B2348015
:1042E000D9E73460D7E700BF611201088C120108DA
:1042F000761201089D1201082DE9F04F584BDFF8A6
:1043000064A191464FF0FF35012285B007468846EB
:104310001A6020262C46494652464046FEF7FCF8D5
:10432000411C07D16A1C52D14F4A0121384608F07E
:1043300017FD1DE0732820D0772833D0612817D1CE
:10434000DFF828B11022DBF80000002105F002FFA1
:1043500005460028DFD10AF04BFE454B1B58162BB3
:10436000D9D1DBF80030434A0121384608F0F8FC87
:104370006FF0150005B0BDE8F08FDFF8F0B0002257
:10438000DBF80000114605F0E5FE04460028C2D126
:104390000AF02EFE364B1B58162BBCD1DBF8003032
:1043A000354AE1E7DFF8C4B00022DBF8000011462F
:1043B00005F0D0FE06460028ADD10AF019FE2C4BC0
:1043C0001B58162BA7D1DBF800302C4ACCE7631C16
:1043D00001D12B4AA9E75FFA86F8C6F3C406002C80
:1043E0003CD06B4629461A46A6EB050C0CE0B8F10A
:1043F000100F1DD0B8F1200F20D0B8F1080F2AD12E
:104400000878187031443344A64203D80CEB0100FD
:104410001028ECD9102CA14628BF4FF010092946CE
:104420004B46384601F0CEF81035A4EB0904D6E728
:10443000088880B21870000A5870E3E7086818709E
:104440004FEA102E83F801E04FEA104E000E83F879
:1044500002E0D870D6E70B4A082167E7204689E7D3
:10446000D0000020EB120108F212010854260020AF
:104470000C000000B1120108C4120108D712010893
:104480000F1301087612010870B5104E04463378F8
:104490000D4681B12BB1BDE870400D4A012108F0F5
:1044A0005FBC012333700B4A0821204608F058FCFA
:1044B0000123337004E083F001033370002BF2D149
:1044C00029462046BDE8704008F084BC5D2C0020E1
:1044D000291301086413010870B504463C480378A9
:1044E000182B02D10B78112B31D0013A0B468D18C5
:1044F000AB4225D18B5C0A780370A2F13003092B03
:10450000344C04D922F02003413B052B04D8236806
:104510003149CA54013323602368022B34D110225D
:104520002D48002105F016FE2C4A136803F8010BF4
:1045300013602B4A1368013313600023236023E0C8
:1045400013F8016B182ED3D11E78112ED0D1244D23
:10455000244A2B680821204608F002FC204600214E
:10456000FFF792FF204B187870B9204A2B6811682A
:10457000042B0ADC08B111602B6013F003010BD18E
:10458000126813681BBA136070BD086800BA41F85E
:10459000040B043B0120EBE75B4203F0030358BF2D
:1045A0005942022904D1126813885BBA9BB2EAE728
:1045B0000329E9D1106802681104C2F3074301F42A
:1045C0007F010B4302F47F4213430360DCE700BF2B
:1045D0005E2C00207C260020602C002088260020F5
:1045E000802600208E1301085F2C002084260020E6
:1045F0002DE9F84F0C462B49DFF8AC80DFF8AC9082
:10460000DFF8ACB000230B602A4988F8003006467A
:104610000B601546012C2F4655F804AF1ED9022217
:10462000494650460AF0C5F980B99AF80220003A86
:1046300018BF012292442049022250460AF0B9F9DB
:1046400030B9012388F80030013CE3E70022F1E7AC
:1046500049465046FCF700FFA8B90437002211462E
:10466000786805F007FD154B002211461860786840
:1046700005F000FD124B134918603046FFF704FFA8
:104680000020BDE8F88F9AF800202D2AE6D19AF88C
:104690000120002AE2D053465A460821304608F04D
:1046A0005FFBD1E77C2600205F2C0020A8130108C7
:1046B000AE13010880260020AB13010888260020D5
:1046C00084260020D944000807B50A4809F007FEEF
:1046D00060B1094A0749126808480423009301237E
:1046E00000F040FE002003B05DF804FB6FF0120004
:1046F000F9E700BF8CF1000824FD000874F50008FC
:1047000010B5144642681068016011684C60116869
:104710008B601368D1681C680023C1E90233C1E9CA
:1047200005334B600B611169C1E90233C1E90533FF
:104730004B600B611168CB60A36823B19B6C13B114
:10474000044920469847A3689B6A0BB120469847C6
:10475000002010BD594700082DE9F041044688B0FB
:104760000D4683685B6C03B19847A3685B6B03BB22
:104770004FF00008286901A9C26907F06BFD0746E0
:10478000002837D0A36801999B6943B302462046AD
:104790009847064630B32869314607F07AFDB7429C
:1047A0004FF00108E6D02B680020D3E901219047A3
:1047B00003E0204698470028DAD1A3685B6A002B03
:1047C00030D1E86802A9C26907F097FD06460028C3
:1047D0002FD1204608F079F92B68DE6034E06FF0C5
:1047E0005706D8E70146286907F053FDB8F1000FD6
:1047F000E3D0D8E71948036813F0060F09D0184B27
:104800000793022306934FF484513B4606AAFEF712
:1048100097FEA3689B69002BE8D0012202A92046DD
:104820009847E3E7204698470028CAD108B0BDE87A
:10483000F081A36802995B6963B1024620469847FC
:104840000146E86807F079FD2B680120D3E90121D2
:104850009047EBE76FF05701F3E700BFD802002065
:104860000F15010810B581680446083101F08EFB70
:10487000A168034A20460831BDE8104001F02CBB76
:104880005115010838B58368D3F86432DB07044654
:104890001FD4C06908F016FE606803685B6898471B
:1048A000054620B9E06808F06FFFA3681D71A36892
:1048B0005B6B13B1294620469847A3680AF098FB22
:1048C0000022C3F80C23044B1858BDE8384002F00E
:1048D000FFB96FF00F05EAE708000000014908F092
:1048E00098B900BFE90F0108F7B504468068D0F811
:1048F00064325A070D4605D5002108F0AEF9E0688C
:1049000008F014FFE368DB6873B9002D39D0A6689E
:1049100006F14207384608F076F9002833D03946C8
:1049200006F5A170FCF7A2FDA268E0680DF1060390
:104930004232294608F0FDFE58B9A06800F5A17181
:104940004230FCF793FDA068423008F05CF9ADF806
:104950000600204608F0B0FBA368D3F860329B063F
:1049600003D50A49606908F054F9204601F0DAF8E5
:10497000A268BDF80630D387A2682046938708F066
:1049800045FB03B0F0BD86F84201CDE7F8F500081D
:104990002DE9F04FA7B004465422002111A80AF0D7
:1049A000CFFA0023CDE90533A368204642330293B2
:1049B00008F088FB204608F012FB10B96069FFF789
:1049C0008DFFA0681422002108300AF0B9FA2046B1
:1049D00000F0CCFFA168E0688A8F4231002608F021
:1049E000DFFE204608F05EFF4FF0FF37B246039629
:1049F0000DF14408B3463546B146DDE90532012ADA
:104A00006DD0132B6ED85FBBBBF1000F0AD02046D0
:104A100008F068FFA2681423423211A90DEB0300CD
:104A200000F058FEB9F1000F0CD099F81130FE2BB0
:104A300008D1059B26AA02EB830252F8542C0AB136
:104A400001330593A068059D4369002B40F0B680B3
:104A5000CEB1C3689E422DD00D9600F1080524E02A
:104A6000029A0223414606A800F034FE0699D8F8BF
:104A700004200292034631B101290AD148B16C4A9F
:104A8000204608F0C7FB6FF00705284627B0BDE8B1
:104A9000F08F059B002B34D0D8F8000001F096FA77
:104AA00098B166B1A5680D9608350CAE0FCE0FC54E
:104AB00033682B602046FFF7D5FE0125E5E75D4A08
:104AC0000121204608F0A6FBDDE7059BCBB1D8F815
:104AD00000202946204601F029FC022809D1059B27
:104AE000132B91D9069B022B8ED1534B534A012194
:104AF000C6E7032805D0059B013305934FF0010B52
:104B00007BE7039B33B9D8F8001007AA484608F0A2
:104B1000EEF9054608F10408013F9DB3EB68BBF1CF
:104B2000000F08D0F3B1204608F0CCFA204608F078
:104B30006DFA434AC4E7ABB1A368DDF814A0AE46F2
:104B400003F1080CBEE80F00ACE80F00DEF80030FF
:104B5000CCF80030AB682BB96B7CFE2B04BF2F7CEC
:104B600007F1FF37D5F804C0BCF1000F08D0AE46FE
:104B7000BEE80F000CAE0FC6DEF8003033606646AC
:104B8000A94603E0059B53B101230393069B17B984
:104B9000022B7FF432AF059B013305932DE7A36809
:104BA000DB6913B1DB68002BEED1264B0093264A5C
:104BB000119B0121204608F02DFBE5E7037EA5EBC4
:104BC0000A05B3B1417E4FF6FF72FF2918BF0A46AE
:104BD0009D4202D313449D420BD983681B4A012195
:104BE000204608F017FB2046FFF73CFE6FF0150546
:104BF0004BE7012108F026F8A06800F53E7008F0A8
:104C000045F8A36811AA294602EB8A025B6920468F
:104C100098470546A0684FF0FF324FF0FF3300F58C
:104C20003E7008F003F8A068002108F00BF82CE7AC
:104C30005F15010873150108D41501086C0B0108F4
:104C400091150108C0150108B2180108F8150108EE
:104C500010B5836802221A7183689B6B0446BBB946
:104C600007F094FF8368D3F86432DB040BD503218B
:104C7000084B094A08F0CEFAA0686FF4805100F59D
:104C8000197007F09BFF2046BDE8104001F094B872
:104C900010BD00BF13160108231201082DE9F04FC3
:104CA00004468068B1B0012100F5197007F077FF64
:104CB000A3681B79022B20D100230993A3686068A5
:104CC0009E6B03681D6909AB0EB310221BA9A84790
:104CD000099B93B1A068012107F0B4FF099A1BA9B1
:104CE0002046B047A068002107F0ACFFA3689B6B8B
:104CF000002BE3D12046FFF7ABFFA0686FF0010166
:104D000000F5197031B0BDE8F04F07F057BF012230
:104D10000DF12301A847099B002BEED09DF923102C
:104D20009DF82330A2680029C8DB5179032900F2DD
:104D30000A83DFE811F004008902A10208030D2BA9
:104D400055D00A2B32D0B2F864126FF3CA01A2F820
:104D50006412092BA0685FD013D8002BAED0082BAB
:104D600000F0D7815A1C8949A068D2B28A5C12F03F
:104D7000970F00F0DA81012107F06FFF9DF82310F3
:104D8000FAE01B2B45D07F2BECD1D0F860329D0789
:104D900094D5012107F061FFA368D3F860321907A9
:104DA00000F1BF81204608F077FA87E7D2F8641255
:104DB000C1F3C70129B1D2F86412C1F3C7010A29AE
:104DC000D0D1B2F8641263F3CA01A2F86412A568E4
:104DD000A98FC1B9284607F040FFE06808F0A6FC9B
:104DE0006069FFF77BFD2046FFF732FF66E7D2F8E8
:104DF0006412C1F3C7010029E3D0D2F86412C1F3F1
:104E0000C7010D29DCE72046FFF7C2FDC5F81003F6
:104E1000E9E70123437151E7D0F860329A077FF543
:104E20004DAF012107F019FFA068838FFF2B3FF4DE
:104E300045AFC28F00F1420100F5A1700AF058F8A9
:104E4000A368DA8F1344002583F84251A2681BA996
:104E5000142302F5A1720BA800F03CFC0B99142955
:104E60003FF62CAF30AB03EB8103DFF824A143F80E
:104E7000545CA368DA8F134493F841301AF8033076
:104E800019B11B0752D401294FD100250A950A9B5D
:104E900030AA02EB8303002653F854BC584607F0AF
:104EA000B2FE374681460496B04616AA41462846C9
:104EB00000F0ECFC0346002844D1012ED4F8088011
:104EC00068D10A9B30AA02EB830353F8540C07F015
:104ED0009AFE08F1080206463946284600F0D6FC3C
:104EE0000568284607F08FFE864205D0821B92B2E5
:104EF000A919204608F0CEF9A068C38F034493F89F
:104F000042301AF8031011F0080139D1D0F860329C
:104F1000DF0730D507F0ABFE2021204600F016FF5A
:104F2000A068012107F0A3FEC8E6013900200CAB00
:104F3000009301900AAB1BAA08F004F8054600286C
:104F4000A5D1BBE61B6803934A465946184609F0AB
:104F500030FD68B9039B1846FCF790FA049B834226
:104F600038BF03469BB2002E08BF47460493013664
:104F700008F1010899E72021204600F0E7FE9DE6B0
:104F80000121204608F074F898E600BF7726010852
:104F90007826010805907FF691AE0A9A30AB03EBB4
:104FA0008202B94652F8543C0393184607F02BFE90
:104FB000059B0690A8F830300596A268494608324D
:104FC000284600F063FC039BD0F800B009F101090A
:104FD0004BB1BBF1000F06D0069A1946584609F0AE
:104FE000E8FC0028E9D1D4F808A0BBF1000F4ED1AD
:104FF000AAF830B0059B013B0593DED16069FFF74D
:105000006DFC204600F0D8FE0A9B30AA02EB830319
:1050100007F1010953F8540C07F0F5FD394611AAC0
:105020008046284600F032FC0746A0683968FF2217
:1050300000F5A17009F0CFFC3B6803934FF6FF77B2
:10504000BA4616AA4946284609F1010B00F01EFC93
:10505000002852D0A168036801F24111002211F822
:1050600001EF985C704503D110B101325245F6D181
:10507000B8F1000F01D0424507DBBA4206F1FF3616
:10508000A8BF3A46012E97B237D0D946D9E7AF48E4
:1050900007F0B9FD049B00EB0308BAF82A301FFAA9
:1050A00088F81B1A584693FBF8F39BB2079307F056
:1050B000AAFDBAF83010079BB1FBF3F2A8EB000889
:1050C000481C03FB121189B21FFA88F8AAF83000B5
:1050D00061B99E4B9E4ACDF800B00621204608F0EB
:1050E00099F84146204600F0CBFC83E7994A5B469D
:1050F0000621204608F08EF8F3E7002F3FF4DEADDE
:105100000399A7EB080292B24144204608F0C2F886
:10511000D4E5D0F860329E077FF5D0AD012107F0CD
:105120009CFD204608F0D3F8C8E5D0F8602292072D
:105130007FF5C4AD013B162B3FF6C0AD01A252F87E
:1051400023F000BF19530008A1510008A95100081D
:10515000A54D00080D530008C7510008BD4C0008BC
:10516000BD4C0008BD4C0008BD4C0008CF510008E4
:10517000D7510008BD4C000801520008BD4C000882
:105180000B520008BD4C0008BD4C0008BD4C000887
:10519000BD4C00080F520008BD4C000839520008F1
:1051A000204607F096FF89E5204607F08BFF204652
:1051B00007F015FF10B96069FFF790FBA0680121A7
:1051C00007F04BFD0FE6204607F08BFF76E5204603
:1051D00007F090FF72E5D0F860329F0603D55E4974
:1051E000606907F016FDA368D3F860329E0603D508
:1051F0005A49606907F00DFD204600F0DDFD5DE5D0
:1052000000212046FFF770FB58E50121F9E7204611
:1052100007F052FF204607F0B9FC0121A06807F013
:105220001CFDA368D3F860329D067FF547AD4C495D
:10523000606907F0EEFC41E5204600F0EDFCA06857
:10524000012107F00AFD39E55B2B02D102235371DE
:1052500034E5D2F86022900706D5622B08D14FF0D2
:10526000FF31204600F022FCA36800225A7125E598
:10527000662BF9D10121F4E700215171A268D2F81F
:10528000601289077FF51AAD313B1B2B3FF616AD37
:1052900001A151F823F000BF155300082153000865
:1052A0003553000809530008BD4C0008BD4C0008E8
:1052B000BD4C0008BD4C0008BD4C0008BD4C0008AA
:1052C000BD4C0008BD4C0008BD4C0008BD4C00089A
:1052D000BD4C0008BD4C00080B52000801520008EC
:1052E000C7510008A1510008BD4C00080D5300082B
:1052F000BD4C000819530008BD4C0008BD4C000807
:10530000BD4C00082553000803235371204607F0C5
:10531000D9FED3E403235371204607F0CDFECDE43C
:1053200003235371A068D0F8601201F0010181F0ED
:105330000101F7E503235371A368D3F860329B079B
:105340007FF5BCAC2EE5002381E700BF5A0A0108B7
:105350005716010823120108FDF5000802F600089F
:10536000F8F500082DE9F043044680688846D0F837
:105370000C1389B015461F46002967D14FF44572BA
:1053800009F0DEFDA36822681A60E06808F070FA90
:10539000A06800F53E7008F0E9FF4FF42A794FF459
:1053A0001A76A068304409F0A5FAA0680022831993
:1053B00001214844103609F073FAB6F52A7F09F145
:1053C0001409EED1A36900261E60A068022100F531
:1053D000197007F0E4FBA36850225A85A3681822CD
:1053E0001A85D4F80890D9F8000007F00CFC89F869
:1053F0002C00A368174A66F38205C3F86052606800
:10540000036841461D682346A8470546D0B9A368EE
:1054100001221A71D4E90A0100220023CDE90623F2
:105420000E230393109B0495CDE9017300940A4B5E
:105430004FF4006203F0A4FAA368C3F80C03616A96
:1054400003F0D0F9284609B0BDE8F0836FF0770586
:10545000F8E700BF31CC0008B154000810B504468D
:1054600080680379012B1DD14FF0FF324FF0FF33DD
:1054700000F53E7007F0DAFB2046082100F08EFBB5
:10548000206807F0C0FB18B10849606907F0C1FB4C
:105490002046FFF7DDFBA06800F53E7007F0F6FB45
:1054A000002010BD6FF08500FBE700BFE80F01088A
:1054B0002DE9F0410446406803680E469B680021D0
:1054C0001546984700284CD126B1E0692A46214666
:1054D00007F0E1FF2046FFF7C1FF002841D1224E2F
:1054E000224FDFF88C80A06800F52A704FF0FF3261
:1054F0004FF0FF33032104F0C7F90546A0684FF0D1
:10550000FF324FF0FF3300F53E7075B107F08EFBB0
:1055100020462B46174A012107F07CFEA068BDE813
:10552000F04100F53E7007F0B1BB07F07FFB32465B
:105530000221204607F051FB3A462946204607F053
:105540004CFB20464246012107F047FB6068036898
:105550005B6903B19847A06800F53E7007F096FBC1
:10556000C1E7BDE8F08100BF854800089D4C0008F8
:1055700091CC00085D16010810B50D4A04460821BB
:1055800007F0EEFB20460B4A082107F0E9FB204616
:10559000094A082107F0E4FB2046084A082107F0E1
:1055A000DFFB2046064A002100F096FC002010BDDB
:1055B00074160108B21601081117010865170108D1
:1055C000FF170108F8B51E4617460B462F4A08215B
:1055D000044607F0C5FB6EB33B782D4A08212046F0
:1055E00007F0BEFB01256A0704D12A4A082120469C
:1055F00007F0B6FBAE4223D97B5D254A0821204641
:1056000007F0AEFB0135102DEDD1234A08212046CD
:1056100007F0A6FBD6B91F4A0821204607F0A0FBD9
:105620000125AE422B4613D81A4A0821204607F01E
:1056300097FB19E0194A0821204607F091FB012544
:10564000164A0821204607F08BFBDBE700252B4696
:10565000FB5C134AD25C12F0970F08BF2E23114A4D
:105660000821204607F07CFB0135102D07D06B0781
:10567000D7D1084A0821204607F072FBD1E720461F
:10568000094ABDE8F840082107F06ABB151801086F
:10569000530A01085B0A01085D0A0108590A01085A
:1056A00078260108EA0801081C18010810B504460C
:1056B00013460A460146064801F0DAFD23691B79C4
:1056C00023B12046BDE8104007F08ABB10BD00BFE3
:1056D000F9CD00082DE9F04F85B00026DFF8A8A12C
:1056E00001910746144699460660B3462378002B7D
:1056F00000F0C6801AF8033013F0080304D004F851
:1057000001BBF3E70026F1E73A68511C39600199C3
:1057100041F822403A684A4500F0B2801E4621789E
:105720000029E3D0A6B90E4623461C46272E04D0F6
:105730005C2E20D0222E40F09780204607F07AFB86
:10574000611C0246204609F0E1FB21780029CDD0FA
:10575000B142A04604F101041BD1404607F06AFBA8
:1057600021460246404609F0D1FB98F800604446C5
:10577000002ED9D1BAE7204607F05CFB651C024633
:105780002946204609F0C2FB66782C46002ECDD172
:10579000ACE75C2998F80110D8D1B1428C4608D109
:1057A000404607F047FB21460246404609F0AEFB63
:1057B000B5E7302925D10025022218F802C0ACF146
:1057C0003000C0B2072819D8ED000132EDB2052A29
:1057D00045EA0005F1D1511E414440460392029131
:1057E00007F028FB039A0299023A821A404609F010
:1057F0008DFB98F8011088F80050A7E7D2B2022A72
:10580000E9D1BCF1780F2AD10025022018F8002038
:10581000A2F1300C5FFA8CFCBCF1090F09D82D0104
:10582000EDB24CEA0505022801D00422D3E703209B
:10583000ECE7A2F1610CBCF1050F05D82D01EDB22A
:10584000573A1543EDB2EEE7A2F1410CBCF1050F5A
:1058500003D82D01EDB2373AF3E7022802D108F15F
:10586000010473E70322B6E71AF806301B073FF579
:1058700049AF6678631C002E7FF457AF1C4635E7AE
:10588000304605B0BDE8F08F7826010838B50B46E4
:10589000154648B91449154A521AB3EB920F05D26E
:1058A00051F82350284638BD84680CB90025F9E723
:1058B0000F4A94420AD30F4A944207D218462268EC
:1058C000294690472B68002BECD1EFE70A4A944217
:1058D00002D30A4A944205D3246814225343E5189C
:1058E000E358F0E70133F8E7A4F50008D8F500081D
:1058F000ECF50008F8F50008D8F50008ECF500080C
:105900002DE9F843074648B107F094FA0025DFF87F
:10591000589004462E46631E9D4201DBBDE8F88385
:10592000284601353B5C19F803301B07ADB2F2D5B0
:1059300029468BB2A342EED27B5C19F8038018F0A3
:10594000080803D001360131B6B2F2E7002EE2D0EA
:105950008AB2A21A0130A41B01323944384409F03A
:10596000D5FAA4B24646D6E778260108F8B5846889
:1059700094F84230054653B9AB689A8FDA87F8BD80
:10598000013A92B2A2872AB984F84220F4E7124E73
:1059900004F14200A28F831813F8013CF35C13F06A
:1059A0000803EDD183549AB210FA83F110F802C0C3
:1059B00016F80CC01CF0080F1F4603F10103F2D1CA
:1059C000BFB2002FD8D0A68F731C9A1AF61B09F00D
:1059D0009DFAA687D0E700BF78260108F7B51646DE
:1059E000027800232D2A0446019305D16FF0150398
:1059F0003360002003B0F0BD09F0FAFA0B4F054602
:105A0000C3510A46204601A904F0A4FBEB59222BFE
:105A100002D16FF02103EBE7002BE7D1019BA342FA
:105A2000E4D01B78002BE5D0E0E700BF0C000000BD
:105A30008368D3F860329B0603D50249406907F0BA
:105A4000AFBA704708F60008014907F0A9BA00BFCD
:105A5000E90F01080A1E0DDC0ED042238168D1F83F
:105A60006012890608D5002A04494069B8BF52422D
:105A700007F096BA4123F1E7704700BF38180108D4
:105A80000A1E0DDC0ED044238168D1F8601289060D
:105A900008D5002A04494069B8BF524207F080BACD
:105AA0004323F1E7704700BF381801082DE9F041A2
:105AB0000C1E064631DA644224B24FF0FF35DFF89F
:105AC0006080A4B2AFB212E0B368DA8F03F1420C87
